{
  "contractName": "Participants",
  "abi": [
    {
      "constant": true,
      "inputs": [
        {
          "name": "",
          "type": "address"
        }
      ],
      "name": "participantId",
      "outputs": [
        {
          "name": "",
          "type": "uint256"
        }
      ],
      "payable": false,
      "stateMutability": "view",
      "type": "function"
    },
    {
      "constant": true,
      "inputs": [
        {
          "name": "",
          "type": "uint256"
        }
      ],
      "name": "participants",
      "outputs": [
        {
          "name": "participant",
          "type": "address"
        },
        {
          "name": "name",
          "type": "string"
        },
        {
          "name": "participantSince",
          "type": "uint256"
        },
        {
          "name": "active",
          "type": "bool"
        }
      ],
      "payable": false,
      "stateMutability": "view",
      "type": "function"
    },
    {
      "constant": true,
      "inputs": [],
      "name": "owner",
      "outputs": [
        {
          "name": "",
          "type": "address"
        }
      ],
      "payable": false,
      "stateMutability": "view",
      "type": "function"
    },
    {
      "constant": false,
      "inputs": [],
      "name": "owned",
      "outputs": [],
      "payable": false,
      "stateMutability": "nonpayable",
      "type": "function"
    },
    {
      "constant": false,
      "inputs": [
        {
          "name": "newOwner",
          "type": "address"
        }
      ],
      "name": "transferOwnership",
      "outputs": [],
      "payable": false,
      "stateMutability": "nonpayable",
      "type": "function"
    },
    {
      "anonymous": false,
      "inputs": [
        {
          "indexed": false,
          "name": "member",
          "type": "address"
        },
        {
          "indexed": false,
          "name": "isMember",
          "type": "bool"
        }
      ],
      "name": "ParticipationChanged",
      "type": "event"
    },
    {
      "constant": false,
      "inputs": [
        {
          "name": "targetParticipant",
          "type": "address"
        },
        {
          "name": "participantName",
          "type": "string"
        }
      ],
      "name": "addParticipant",
      "outputs": [],
      "payable": false,
      "stateMutability": "nonpayable",
      "type": "function"
    },
    {
      "constant": false,
      "inputs": [
        {
          "name": "targetParticipant",
          "type": "address"
        }
      ],
      "name": "removeParticipant",
      "outputs": [],
      "payable": false,
      "stateMutability": "nonpayable",
      "type": "function"
    },
    {
      "constant": true,
      "inputs": [],
      "name": "getParticipantCount",
      "outputs": [
        {
          "name": "",
          "type": "uint256"
        }
      ],
      "payable": false,
      "stateMutability": "view",
      "type": "function"
    }
  ],
  "bytecode": "0x6060604052341561000f57600080fd5b610c6f8061001e6000396000f30060606040526004361061008e576000357c0100000000000000000000000000000000000000000000000000000000900463ffffffff1680631e10b4d41461009357806335c1d349146100e0578063668a2001146101de5780638da5cb5b14610217578063ad6057291461026c578063b68feb8414610295578063df32754b14610311578063f2fde38b14610326575b600080fd5b341561009e57600080fd5b6100ca600480803573ffffffffffffffffffffffffffffffffffffffff1690602001909190505061035f565b6040518082815260200191505060405180910390f35b34156100eb57600080fd5b6101016004808035906020019091905050610377565b604051808573ffffffffffffffffffffffffffffffffffffffff1673ffffffffffffffffffffffffffffffffffffffff16815260200180602001848152602001831515151581526020018281038252858181546001816001161561010002031660029004815260200191508054600181600116156101000203166002900480156101cc5780601f106101a1576101008083540402835291602001916101cc565b820191906000526020600020905b8154815290600101906020018083116101af57829003601f168201915b50509550505050505060405180910390f35b34156101e957600080fd5b610215600480803573ffffffffffffffffffffffffffffffffffffffff169060200190919050506103e2565b005b341561022257600080fd5b61022a610689565b604051808273ffffffffffffffffffffffffffffffffffffffff1673ffffffffffffffffffffffffffffffffffffffff16815260200191505060405180910390f35b341561027757600080fd5b61027f6106ae565b6040518082815260200191505060405180910390f35b34156102a057600080fd5b61030f600480803573ffffffffffffffffffffffffffffffffffffffff1690602001909190803590602001908201803590602001908080601f016020809104026020016040519081016040528093929190818152602001838380828437820191505050505050919050506106e5565b005b341561031c57600080fd5b61032461094b565b005b341561033157600080fd5b61035d600480803573ffffffffffffffffffffffffffffffffffffffff1690602001909190505061098d565b005b60026020528060005260406000206000915090505481565b60048181548110151561038657fe5b90600052602060002090600402016000915090508060000160009054906101000a900473ffffffffffffffffffffffffffffffffffffffff169080600101908060020154908060030160009054906101000a900460ff16905084565b60008060009054906101000a900473ffffffffffffffffffffffffffffffffffffffff1673ffffffffffffffffffffffffffffffffffffffff163373ffffffffffffffffffffffffffffffffffffffff1614151561043f57600080fd5b6000600260008473ffffffffffffffffffffffffffffffffffffffff1673ffffffffffffffffffffffffffffffffffffffff168152602001908152602001600020541415151561048e57600080fd5b600260008373ffffffffffffffffffffffffffffffffffffffff1673ffffffffffffffffffffffffffffffffffffffff1681526020019081526020016000205490505b6001600480549050038110156105f4576004600182018154811015156104f357fe5b906000526020600020906004020160048281548110151561051057fe5b90600052602060002090600402016000820160009054906101000a900473ffffffffffffffffffffffffffffffffffffffff168160000160006101000a81548173ffffffffffffffffffffffffffffffffffffffff021916908373ffffffffffffffffffffffffffffffffffffffff160217905550600182018160010190805460018160011615610100020316600290046105ac929190610a2b565b50600282015481600201556003820160009054906101000a900460ff168160030160006101000a81548160ff02191690831515021790555090505080806001019150506104d1565b600460016004805490500381548110151561060b57fe5b9060005260206000209060040201600080820160006101000a81549073ffffffffffffffffffffffffffffffffffffffff02191690556001820160006106519190610ab2565b60028201600090556003820160006101000a81549060ff0219169055505060048054809190600190036106849190610afa565b505050565b6000809054906101000a900473ffffffffffffffffffffffffffffffffffffffff1681565b6000806000809150600090505b6004805490508110156106dd57818060010192505080806001019150506106bb565b819250505090565b60008060009054906101000a900473ffffffffffffffffffffffffffffffffffffffff1673ffffffffffffffffffffffffffffffffffffffff163373ffffffffffffffffffffffffffffffffffffffff1614151561074257600080fd5b600260008473ffffffffffffffffffffffffffffffffffffffff1673ffffffffffffffffffffffffffffffffffffffff16815260200190815260200160002054905060008114156107ed57600480549050600260008573ffffffffffffffffffffffffffffffffffffffff1673ffffffffffffffffffffffffffffffffffffffff16815260200190815260200160002081905550600480548091906001016107ea9190610afa565b90505b6080604051908101604052808473ffffffffffffffffffffffffffffffffffffffff1681526020018381526020014281526020016001151581525060048281548110151561083757fe5b906000526020600020906004020160008201518160000160006101000a81548173ffffffffffffffffffffffffffffffffffffffff021916908373ffffffffffffffffffffffffffffffffffffffff16021790555060208201518160010190805190602001906108a8929190610b2c565b506040820151816002015560608201518160030160006101000a81548160ff0219169083151502179055509050507faee07a37052e483b787230713063454d287dce188a00b5fc959b559f70b2c6a8836001604051808373ffffffffffffffffffffffffffffffffffffffff1673ffffffffffffffffffffffffffffffffffffffff168152602001821515151581526020019250505060405180910390a1505050565b336000806101000a81548173ffffffffffffffffffffffffffffffffffffffff021916908373ffffffffffffffffffffffffffffffffffffffff160217905550565b6000809054906101000a900473ffffffffffffffffffffffffffffffffffffffff1673ffffffffffffffffffffffffffffffffffffffff163373ffffffffffffffffffffffffffffffffffffffff161415156109e857600080fd5b806000806101000a81548173ffffffffffffffffffffffffffffffffffffffff021916908373ffffffffffffffffffffffffffffffffffffffff16021790555050565b828054600181600116156101000203166002900490600052602060002090601f016020900481019282601f10610a645780548555610aa1565b82800160010185558215610aa157600052602060002091601f016020900482015b82811115610aa0578254825591600101919060010190610a85565b5b509050610aae9190610bac565b5090565b50805460018160011615610100020316600290046000825580601f10610ad85750610af7565b601f016020900490600052602060002090810190610af69190610bac565b5b50565b815481835581811511610b2757600402816004028360005260206000209182019101610b269190610bd1565b5b505050565b828054600181600116156101000203166002900490600052602060002090601f016020900481019282601f10610b6d57805160ff1916838001178555610b9b565b82800160010185558215610b9b579182015b82811115610b9a578251825591602001919060010190610b7f565b5b509050610ba89190610bac565b5090565b610bce91905b80821115610bca576000816000905550600101610bb2565b5090565b90565b610c4091905b80821115610c3c57600080820160006101000a81549073ffffffffffffffffffffffffffffffffffffffff0219169055600182016000610c179190610ab2565b60028201600090556003820160006101000a81549060ff021916905550600401610bd7565b5090565b905600a165627a7a72305820f7bdf19ccbbd2f3ac9f5aef0045f6819904205eb8ede9ddcf26e20144f4666ac0029",
  "source": "pragma solidity ^0.4.19;\n\nimport \"./Owned.sol\";\ncontract Participants  is Owned {\n\n    event ParticipationChanged(address member, bool isMember);\n    struct Participant {\n        address participant;\n        string name;\n        uint participantSince;\n        bool active;\n    }\n\n    mapping (address => uint) public participantId;\n    mapping (address => Participant) private accountToParticipant;\n    Participant[] public participants;\n\n    function addParticipant(address targetParticipant, string participantName) onlyOwner public {\n        uint id = participantId[targetParticipant];\n        if (id == 0) {\n            participantId[targetParticipant] = participants.length;\n            id = participants.length++;\n        }\n\n        participants[id] = Participant({participant: targetParticipant, participantSince:now, name: participantName, active:true});\n        ParticipationChanged(targetParticipant, true);\n    }\n\n    function removeParticipant(address targetParticipant) onlyOwner public {\n        require(participantId[targetParticipant] != 0);\n\n        for (uint i = participantId[targetParticipant]; i<participants.length-1; i++){\n            participants[i] = participants[i+1];\n        }\n        delete participants[participants.length-1];\n        participants.length--;\n    }\n\n//    function getParticipant(address participant) public view returns (address, bytes32) {\n//         Participant memory mem = accountToParticipant[participant];\n//         return (mem.participant, mem.name);\n//     }\n\n//     function getParticipants() public view  returns (address[]) {\n//         address[] memory activeAddresses = new address[](getParticipantCount());\n\n//         uint currentCounter = 0;\n//         for (uint i = 0; i < participants.length; i++) {\n//             address participant = participants[i];\n//             Participant memory mem = accountToParticipant[participant];\n//             if (mem.active) {\n//                 activeAddresses[currentCounter++] = participant;\n//             }\n//         }\n//         return activeAddresses;\n//     }\n\n    function getParticipantCount() public view returns (uint) {\n        uint count = 0;\n        for (uint i = 0; i < participants.length; i++) {\n             count++;\n        }\n        return count;\n   }\n\n}",
  "sourcePath": "/home/mandla/projects/foobar/contracts/Participants.sol",
  "compiler": {
    "name": "solc",
    "version": "0.4.19+commit.c4cbbb05.Emscripten.clang"
  },
  "schemaVersion": "1.0.1",
  "updatedAt": "2018-02-09T09:15:42.529Z"
}